:100000000C9435000C945D000C945D000C945D0024
:100010000C945D000C945D000C945D000C945D00EC
:100020000C945D000C945D000C945D000C945D00DC
:100030000C945D000C945D000C945D000C945D00CC
:100040000C945B100C945D000C9429100C9403101C
:100050000C945D000C945D000C945D000C945D00AC
:100060000C945D000C945D00A51011241FBECFEF11
:10007000D8E0DEBFCDBF12E0A0E0B1E0ECEAFAE2EA
:1000800002C005900D92A03EB107D9F727E0A0EE7F
:10009000B2E001C01D92AC37B207E1F710E0C5E352
:1000A000D0E004C02197FE010E941813C433D10789
:1000B000C9F70E9489110C9454150C94000080E932
:1000C00091E00895AF92BF92CF92DF92EF92FF92AC
:1000D0000F931F93CF93DF936C017B018B01040F70
:1000E000151FEB015E01AE18BF08C017D10759F00C
:1000F0006991D601ED91FC910190F081E02DC6014E
:100100000995892B79F7C501DF91CF911F910F9147
:10011000FF90EF90DF90CF90BF90AF900895FC01DB
:10012000538D448D252F30E0842F90E0821B930B5C
:10013000541710F0CF96089501970895FC01918D02
:10014000828D981761F0A28DAE0FBF2FB11D5D9605
:100150008C91928D9F5F9F73928F90E008958FEFA7
:100160009FEF0895FC01918D828D981731F0828D5B
:10017000E80FF11D858D90E008958FEF9FEF0895B2
:10018000FC01918D228D892F90E0805C9F4F821B16
:1001900091098F73992708958CE993E00E94C0001C
:1001A00021E0892B09F420E0822F089580E090E07F
:1001B000892B29F00E94CC0081110C940000089535
:1001C000FC01A48DA80FB92FB11DA35ABF4F2C91CC
:1001D000848D90E001968F739927848FA689B789C3
:1001E0002C93A089B1898C91837080648C93938DBA
:1001F000848D981306C00288F389E02D80818F7D5D
:1002000080830895EF92FF920F931F93CF93DF9314
:10021000EC0181E0888F9B8D8C8D98131AC0E88942
:10022000F989808185FF15C09FB7F894EE89FF8911
:100230006083E889F98980818370806480839FBFAF
:1002400081E090E0DF91CF911F910F91FF90EF90AF
:100250000895F62E0B8D10E00F5F1F4F0F731127BF
:10026000E02E8C8D8E110CC00FB607FCFACFE889FA
:10027000F989808185FFF5CFCE010E94E000F1CFA2
:10028000EB8DEC0FFD2FF11DE35AFF4FF0829FB76E
:10029000F8940B8FEA89FB8980818062CFCFCF935E
:1002A000DF93EC01888D8823B9F0AA89BB89E8899E
:1002B000F9898C9185FD03C0808186FD0DC00FB644
:1002C00007FCF7CF8C9185FFF2CF808185FFEDCFC2
:1002D000CE010E94E000E9CFDF91CF9108953FB7B2
:1002E000F8948091F6029091F702A091F802B091F3
:1002F000F90226B5A89B05C02F3F19F00196A11D54
:10030000B11D3FBFBA2FA92F982F8827BC01CD015F
:10031000620F711D811D911D42E0660F771F881FBE
:10032000991F4A95D1F708952FB7F8946091F2027A
:100330007091F3028091F4029091F5022FBF08951D
:100340000F931F93CF93DF932091F0022F5F322FF3
:1003500037703093F00220FF2BC020E831FD20647D
:10036000347009F02062205FFC01EC01239600E06C
:1003700011E06485662329F070E0C8010E94BC1278
:100380006F5F6187322F369F030E30E0311D1124DD
:10039000311110C01682662311F0615061873196C9
:1003A000EC17FD0731F7DF91CF911F910F91089561
:1003B00020E0D4CF31503683EECF8A5F9C4FFC01D2
:1003C0008081089588EA91E0089589EC91E008958C
:1003D000FC01838594850895DB012C91FC01208725
:1003E0000184F285E02D069609944F925F926F92F8
:1003F0007F928F92AF92BF92CF92DF92EF920F9344
:100400001F93CF93DF933C01EB010E946F01F30137
:1004100027853089621B730B6A307105B0F3F8943D
:10042000E881F9817BB178606BB1677F6BB9CA8471
:100430008F812C2D281B822F2F83BF844A805B80C5
:100440001D850C85DE841F5F0F5FD3949E813885E8
:10045000A984EB844181D20120E0C32F522F322F97
:100460003181442788943111380F08F43FEF81958A
:10047000889410FD430F4795889411FD430F4795CD
:10048000889412FD430F4795889413FD430F4795B9
:10049000889414FD430F4795889415FD430F4795A5
:1004A000889416FD430F4795889417FD430F479591
:1004B0008894232F1111242F8C0D422F002C7BB9EF
:1004C00000C047FF6BB930812227889400C000C06C
:1004D000002C6BB93111390F00C0002C7BB900C062
:1004E00046FF6BB908F43FEF9195889400C000C0B7
:1004F000002C6BB900FD230F00C0002C7BB900C09D
:1005000045FF6BB92795889401FD230F00C000C0FB
:10051000002C6BB92795889400C0002C7BB900C0D3
:1005200044FF6BB902FD230F2795889400C000C0DB
:10053000002C6BB903FD230F00C0002C7BB900C059
:1005400043FF6BB92795889404FD230F00C000C0BA
:10055000002C6BB92795889400C0002C7BB900C093
:1005600042FF6BB905FD230F2795889400C000C09A
:10057000002C6BB906FD230F00C0002C7BB900C016
:1005800041FF6BB92795889407FD230F00C000C079
:10059000002C6BB92795889400C0002C7BB900C053
:1005A00040FF6BB9432F0111422F9A0D00C000C0CC
:1005B000002C6BB900C000C0002C7BB900C047FF05
:1005C0006BB932812227889400C000C0002C6BB91F
:1005D00031113C0F00C0002C7BB900C046FF6BB945
:1005E00008F43FEFEB0DF11D00C000C0002C6BB90B
:1005F000D0FC230F00C0002C7BB900C045FF6BB9B5
:1006000027958894D1FC230F00C000C0002C6BB943
:100610002795889400C0002C7BB900C044FF6BB9BB
:10062000D2FC230F2795889400C000C0002C6BB922
:10063000D3FC230F00C0002C7BB900C043FF6BB973
:1006400027958894D4FC230F00C000C0002C6BB900
:100650002795889400C0002C7BB900C042FF6BB97D
:10066000D5FC230F2795889400C000C0002C6BB9DF
:10067000D6FC230F00C0002C7BB900C041FF6BB932
:1006800027958894D7FC230F00C000C0002C6BB9BD
:100690002795889400C0002C7BB900C040FF6BB93F
:1006A000432FD110422FC19500C000C0002C6BB960
:1006B000CE0D00C000C07BB900C047FF6BB93181CF
:1006C0002227889400C000C0002C6BB93111380F6C
:1006D00000C0002C7BB900C046FF6BB908F43FEFA7
:1006E0008195889400C000C0002C6BB910FD230FC9
:1006F00000C0002C7BB900C045FF6BB927958894DA
:1007000011FD230F00C000C0002C6BB92795889401
:1007100000C0002C7BB900C044FF6BB912FD230F51
:100720002795889400C000C0002C6BB913FD230FDF
:1007300000C0002C7BB900C043FF6BB9279588949B
:1007400014FD230F00C000C0002C6BB927958894BE
:1007500000C0002C7BB900C042FF6BB915FD230F10
:100760002795889400C000C0002C6BB916FD230F9C
:1007700000C0002C7BB900C041FF6BB9279588945D
:1007800017FD230F00C000C0002C6BB9279588947B
:1007900000C0002C7BB900C040FF6BB9432F111182
:1007A000422F8C0D00C000C0002C6BB9119709F0CE
:1007B00086CE20EE31E0D2010E94F212DC01CB01A4
:1007C000F4E0B695A79597958795FA95D1F730E01F
:1007D00020E0B901EAE94E9E040C611D5E9E600DA9
:1007E000711D1124650D711D860F971FA11DB11D6F
:1007F000893E43E09407A105B10508F434C0885E42
:100800009340A109B10942E0B695A79597958795C0
:100810004A95D1F747E0849F080E211D949F200D33
:10082000311D1124290F311D6091EF0270E0860FF8
:10083000971F820F931F4091F2025091F302609133
:10084000F4027091F502292F3327420F531F611DC7
:10085000711D4093F2025093F3026093F40270937F
:10086000F5028093EF0278940E946F01F301708B80
:100870006787DF91CF911F910F91EF90DF90CF901D
:10088000BF90AF908F907F906F905F904F90089542
:10089000539A08950F931F93CF93DF93CDB7DEB78D
:1008A00062970FB6F894DEBF0FBECDBF8C01F90181
:1008B000DC011C968C917A8369835C834B835E8315
:1008C0004D8390819D8791819E8792819F87813002
:1008D000F1F4CE0101960E94A00183E0888B1A8A70
:1008E000198AD801ED91FC910484F585E02DBE01B3
:1008F0006F5F7F4FC801099562960FB6F894DEBF0F
:100900000FBECDBFDF91CF911F910F9108951C862F
:100910001B861A86198618861F82DFCF0F931F93B6
:10092000CF93DF93CDB7DEB762970FB6F894DEBFF3
:100930000FBECDBF8C01F901DC011C968C917A832E
:1009400069835C834B835E834D8390819D87918116
:100950009E8792819F878130E9F4CE0101960E94A3
:10096000A001188A1A8A198AD801ED91FC91048491
:10097000F585E02DBE016F5F7F4FC8010995629636
:100980000FB6F894DEBF0FBECDBFDF91CF911F91A0
:100990000F9108951C861B861A86198618861F8259
:1009A000E0CFAF92BF92CF92DF92EF92FF920F9380
:1009B0001F93CF93DF9300D000D01F92CDB7DEB747
:1009C000643671054CF0FC01EA5FFC4F2081F12C8C
:1009D000E12C222309F476C0DA017B018C01BC01F1
:1009E000615A7E4FED91FC910190F081E02DCA019A
:1009F0000995680128EAC21A2EEFD20A2FEFD60114
:100A00002C93F801E75AFE4F2EEF20833196808316
:100A1000319690833196292F280F20952083319687
:100A2000E0821696FC9245E050E030E020E0DC01E8
:100A30001696A417B50734F06191260F311D4F5F4C
:100A40005F4FF7CF7C01B8E0EB0EF11C800F911FD8
:100A5000FC01E15AFE4F20952083E1E4EE16E1E02F
:100A6000FE06B4F45601C5018C199D098E159F052B
:100A70004CF5D80112968D919C91F50161915F0121
:100A8000DC01ED91FC910190F081E02D0995EBCF17
:100A90008EE391E09A83898383E08B8387ED91E0F5
:100AA0009D838C83D801ED91FC910190F081E02D24
:100AB000AE014F5F5F4F67E070E0C8010995EE241B
:100AC000EA94FE2CC7010F900F900F900F900F909B
:100AD000DF91CF911F910F91FF90EF90DF90CF901A
:100AE000BF90AF9008950F931F93CF93DF93CDB72F
:100AF000DEB72A970FB6F894DEBF0FBECDBF8C01CC
:100B000082E391E09A8389831B821C821D821E826C
:100B10001F82188619861A86D801ED91FC910190E2
:100B2000F081E02DAE014F5F5F4F6AE070E0C801D9
:100B300009950E949401F8016087718782879387E5
:100B40002A960FB6F894DEBF0FBECDBFDF91CF91CE
:100B50001F910F910895CF92DF92EF92FF92DC01E7
:100B60001D921D921D921C921397FB0130E020E014
:100B7000419150E0022E02C0440F551F0A94E2F743
:100B8000052E000C660B770BCD90DD90ED90FC9060
:100B900013974C295D296E297F294D935D936D93A1
:100BA0007C931397285F3F4F2032310509F7FF9060
:100BB000EF90DF90CF900895FC0140835183128223
:100BC000138208954F925F926F927F929F92AF929D
:100BD000BF92CF92DF92EF92FF920F931F93CF932A
:100BE000DF9300D01F92CDB7DEB7DC0112968C9157
:100BF000282F082E000C330B8F7009F428C1815068
:100C0000990B13E0880F991F1A95E1F74FEF50E009
:100C100060E070E004C0440F551F661F771F8A957F
:100C2000D2F74093EB025093EC026093ED02709385
:100C3000EE02C90195958795959587958C7380935C
:100C4000EA024091EB025091EC026091ED0270914A
:100C5000EE02E091EA028E2F90E0FC01EE0FFF1F02
:100C6000E80FF91FE95EFC4F608351834283409196
:100C7000EB025091EC026091ED027091EE02E09176
:100C8000EA028E2F90E00196FC01EE0FFF1FE80FA5
:100C9000F91FE95EFC4F6083518342834091EB0270
:100CA0005091EC026091ED027091EE02E091EA0247
:100CB0008E2F90E00296FC01EE0FFF1FE80FF91F48
:100CC000E95EFC4F6083518342834091EB02509177
:100CD000EC026091ED027091EE02E091EA028E2F3B
:100CE00090E00396FC01EE0FFF1FE80FF91FE95E8D
:100CF000FC4F608351834283F0908F038091920375
:100D000090919303A0919403B0919503892B8A2B22
:100D10008B2BD9F00E946F010091E6021091E7023F
:100D20002091E8023091E902601B710B820B930B5A
:100D300000919203109193032091940330919503B5
:100D40006017710782079307C8F20E946F016093D2
:100D5000E6027093E7028093E8029093E902E09143
:100D60009A03F0919B03309759F04091960350916C
:100D7000970360919803709199038F2D0995F82E30
:100D80000091FC021091FD024F2C512C712C612C12
:100D90000115110509F464C0F801E4848091900301
:100DA000909191038436910508F41486D801ED9151
:100DB000FC91A280B38019821A821B82FF2089F1E4
:100DC000F8013696D12CC12C2191222319F1928061
:100DD000992001F130E050E040E02F5F3F4F4F4F4E
:100DE0005F4FC301B2010E94AC129B01AC01892D7F
:100DF00090E0B0E0A0E0BC01CD016F5F7F4F8F4F6E
:100E00009F4F0E94AC12A1E0B0E0AC0FBD1FAC0D33
:100E1000BD1D8C93BFEFCB1ADB0A83E0C816D1044B
:100E200099F6D8011D964D915C911E9712966D9181
:100E30007C919E012F5F3F4FC801F5010995D801B4
:100E40001C96EC921C9714960D911C91A1CF1092B8
:100E5000EB021092EC021092ED021092EE02E9CE3B
:100E60008091E4029091E5028C010F5F1F4F109377
:100E7000E5020093E40249978CF10E9494019B01E2
:100E8000AC0188EE93E0089FB001099F700D189F98
:100E9000700D1124072E000C880B990BC090E002F6
:100EA000D090E102E090E202F090E3022C193D09BB
:100EB0004E095F090E94D012309391032093900352
:100EC0001092E5021092E4020E9494016093E00205
:100ED0007093E1028093E2029093E3020F900F90EF
:100EE0000F90DF91CF911F910F91FF90EF90DF90C6
:100EF000CF90BF90AF909F907F906F905F904F90FA
:100F00000895FB012081FC01228381E090E0089597
:100F1000FC018281FB01808381E090E0089580E103
:100F200092E0089586E091E0089581E392E00895CB
:100F300082E592E008954F925F926F927F928F9236
:100F40009F92AF92BF92EF92FF920F931F93CF9316
:100F5000DF9300D000D0CDB7DEB77C018B01FB0161
:100F60008191BF01F7018283CE0101960E94AB05FA
:100F700089819A81AB81BC814C015D01F5E08F0EC6
:100F8000911CA11CB11CA8014C5F5F4FFA0125E028
:100F900030E02901712C612C481459046A047B0447
:100FA00028F4618161932F5F3F4FF3CFF801E80F81
:100FB000F91F1482F7015483438305960F900F9015
:100FC0000F900F90DF91CF911F910F91FF90EF90B5
:100FD000BF90AF909F908F907F906F905F904F9059
:100FE000089585E692E0089586E892E008954F928C
:100FF0005F926F927F928F929F92AF92BF92CF92A9
:10100000DF92EF92FF920F931F93CF93DF93CDB7B1
:10101000DEB72C970FB6F894DEBF0FBECDBF7C01B4
:101020008B01DB018C9190E0F70193838283119611
:101030002C91922B938382836E5F7F4FCE0101961A
:101040000E94AB0589809A80AB80BC802401350169
:10105000F6E04F0E511C611C711C98012B5F3F4F35
:10106000F90186E090E0AC0170E060E044155505C0
:101070006605770520F4418141930196F4CFB401D0
:101080006A5F7F4FF801E80DF91D1582D7011596AB
:101090003C932E931497600F711FCE0105960E940A
:1010A000AB05BAE08B0E911C4D805E806F8078841A
:1010B000C401092C000CAA0BBB0B5C016D01A40C34
:1010C000B51CC61CD71CF801E80DF91DAF01401B6B
:1010D000510B70E060E04A155B056C057D0538F446
:1010E0002191AF0142505109DA012C93EFCF480C06
:1010F000591CB801640D751DFB0131971082C401A4
:101100000197800F911FF70197838683CE0109967F
:101110000E94AB0592012C5F3F4F89849A84AB8477
:10112000BC84A901032E000C660B770B480D591DDA
:101130006A1D7B1DF801E20FF31FCF01801B910B8D
:10114000B0E0A0E084179507A607B70728F48191BF
:10115000DF0112978C93F1CFC901880D991DF80119
:10116000E80FF91FDF0111971C9221503109020F7E
:10117000131FD70119961C930E9318972181428152
:1011800050E070E060E0BA0155274427522B2081DF
:10119000422B2381722BF70142875387648775871F
:1011A00004962C960FB6F894DEBF0FBECDBFDF912C
:1011B000CF911F910F91FF90EF90DF90CF90BF9054
:1011C000AF909F908F907F906F905F904F90089519
:1011D0008FE992E0089580EC92E00895FC01DB0134
:1011E0004C9150E070E060E04283538364837583E8
:1011F00011968C911197582B428353836483758386
:1012000012968C911297682B428353836483758363
:1012100013968C911397782B428353836483758341
:1012200014964C91149750E070E060E04683578329
:101230006087718715968C911597582B4683578335
:101240006087718716968C911697682B4683578313
:101250006087718717968C91782B468357836087B8
:10126000718788E090E00895DC01FB0112968C9173
:101270001297808313968C911397818314968C9187
:101280001497828315968C911597838316968C916B
:101290001697848317968C911797858318968C914F
:1012A0001897868319968C91878388E090E008953B
:1012B00090E080E00895FC01858596850895CF93A0
:1012C000DF9300D000D000D0CDB7DEB7AB011C82D9
:1012D0001D821E82DC01ED91FC910190F081E02DD8
:1012E00019821A821B829E012F5F3F4FBE016C5FE5
:1012F0007F4F099526960FB6F894DEBF0FBECDBF7F
:10130000DF91CF9108950E94EA132F923F924F925E
:101310005F926F927F928F929F92AF92BF92CF9285
:10132000DF92EF92FF920F931F93CF93DF93CDB78E
:10133000DEB72E970FB6F894DEBF0FBECDBF8C017F
:101340006B01DB018D909D90AD90BC90FC01828182
:101350009381A481B58188159905AA05BB0570F410
:10136000B401660F771F660F771F828593850E94F1
:101370002D13D8011B969C938E931A97F8018282A5
:101380009382A482B582C60140E050E0BA01A4E095
:10139000EA2EF12C98012A5F3F4FDC011596EC9163
:1013A000159716964C901697512C712C612C320182
:1013B000552444245E2A1496EC9114974E2A1796CD
:1013C000EC917E2AD7011701E4E02E0E311C710149
:1013D0000496F80182809380A480B5804815590551
:1013E0006A057B05A8F44682578260867186149749
:1013F000A284B384AA0DBB1DE4E0BE2EF9010190C6
:101400000D92BA94E1F74F5F5F4F6F4F7F4FC5CF9B
:1014100084859585A685B78584159505A605B705A8
:1014200070F4B201660F771F660F771F8489958964
:101430000E942D13D80155969C938E935497F801D2
:101440004486558666867786C601820D931D412C9B
:10145000512C32011C019801205F3F4FDC01119695
:101460006C91119712968C901297912CB12CA12C03
:10147000540199248824962A6C91862A13966C919B
:10148000B62AB4E0EB0EF11CF8014485558566855B
:1014900077854416550666067706C0F4808A918AD9
:1014A000A28AB38ABC0162197309A489B589A60FFF
:1014B000B71F64E0F90101900D926A95E1F7BFEF63
:1014C0004B1A5B0A6B0A7B0A0496C8CF86899789F8
:1014D000A08DB18D88159905AA05BB0560F4B401EE
:1014E000660F771F848D958D0E942D13D8015D9610
:1014F0009C938E935C97F801868A978AA08EB18E12
:10150000412C512C32011801FAE12F0E311CF80147
:1015100086899789A08DB18D481659066A067B0683
:1015200008F05CC0B6016E0D7F1DCE0101960E94D1
:10153000AB0597012C5F3F4F3E872D8789809A80AE
:10154000AB80BC80C901032E000CAA0BBB0BAC0105
:10155000BD01480D591D6A1D7B1D49875A876B8740
:101560007C87F901EC0DFD1D9F012C193D09B90186
:1015700090E080E029853A854B855C85621773078A
:101580008407950728F42191DF0112972C93ECCF63
:10159000ED84FE84E80CF91CF601EE0DFF1D319779
:1015A00010828D859E8501978C0D9D1DD8015B96BF
:1015B0009C938E935A97C201880F991F5C96ED9168
:1015C000FC91E80FF91FD1018D919C91918380834B
:1015D000BFEF4B1A5B0A6B0A7B0A99CFC7012E96A5
:1015E0000FB6F894DEBF0FBECDBFDF91CF911F9134
:1015F0000F91FF90EF90DF90CF90BF90AF909F90B2
:101600008F907F906F905F904F903F902F900895B4
:101610002F923F924F925F926F927F928F929F9202
:10162000AF92BF92CF92DF92EF92FF920F931F93F0
:10163000CF93DF93CDB7DEB7A6970FB6F894DEBF92
:101640000FBECDBF8C010E9494014B015C0198013B
:10165000255F3C4F3E8B2D8BF90180819181A281CA
:10166000B38175016401C81AD90AEA0AFB0AD701D5
:10167000C601893F9A42A105B10510F03597108245
:10168000180134E0231A3DEF330AD1018D919C916A
:10169000892B79F0F801E15FFC4F80819181A28173
:1016A000B38188159905AA05BB0518F4F1011182CB
:1016B000108298012C5F3C4F3A8B298BA8015D5F0B
:1016C0005C8B4B8BC8014896988F8F8BD801AA5F93
:1016D000BC4FBC8FAB8FF801EC5EFC4FFE8FED8FE3
:1016E000215F3F4F38A32F8F42505109588B4F87AE
:1016F00086519D4F9A8F898F1996BAA3A9A3A501E8
:1017000094012C5E3F4F4F4F5F4F2BA33CA34DA343
:101710005EA3F80184899589A689B789892B8A2BCC
:101720008B2BB9F5D80112968D919C91DC01ED912E
:10173000FC910284F385E02D09959C0197FF3DC043
:10174000F801EA5FFC4F8081882301F17801B9EF4D
:10175000EB1ABCEFFB0AF70180819181A281B38172
:10176000A5019401281B390B4A0B5B0BDA01C90157
:10177000853C9940A105B10548F0C8010E94730558
:10178000D7018D929D92AD92BC92139790E080E02C
:10179000B8C10E949401681979098A099B09F80166
:1017A000C488D588E688F788C616D706E806F906FD
:1017B00008F0B8CF8EEF9FEFA4C1A989BA898D91A7
:1017C0009C911197820F931F8D939C93F1014081FF
:1017D000518147305105F9F4A98DBA8D8D919C91B5
:1017E0001197AC014F5F5F4F4D935C93800F911F3A
:1017F000FC01208FAF85B8898D919C91119701973D
:101800008D939C93892B09F084CF88E090E0F101BF
:10181000918380837ECF4115510521F52F3F3105FE
:1018200081F481E090E091838083CBA0DCA0EDA0E7
:10183000FEA0A9A1BAA1CD92DD92ED92FC921397E0
:1018400068CF0E949401681979098A099B0969384F
:1018500073418105910508F45CCFF801EA5FFC4F04
:101860001082A8CF4130510589F42E3F310519F47B
:1018700082E090E0CCCF11821082EB8DFC8D8081D4
:10188000811147CFC8010E94730543CF42305105F3
:1018900091F4AF85B8892D933C93E98DFA8D11822F
:1018A000108283E090E0D1018D939C93E989FA89BD
:1018B000318320832ECF4330510571F4322F2227FC
:1018C000AF85B8898D919C911197280F391F2D9361
:1018D0003C9384E090E09BCF4430510579F460E084
:1018E00071E00E94BC128F3F910529F485E090E0E1
:1018F000918380830ECF118210820BCF453051052A
:1019000069F4AB89BC892D933C9386E090E0918388
:101910008083A989BA892D933C93FBCE463051052B
:10192000A1F4322F2227EB89FC8980819181280F35
:10193000391F3183208387E090E0D1018D939C9300
:10194000EF85F889808191815DCF4830510509F09C
:10195000E0CE1182108260E071E00E94BC128F3FE5
:10196000910509F0D6CEAB89BC89ED91FC913097F9
:1019700009F0E0C0C8010E94730586E291E09A83F5
:1019800089831C821B828FE092E09E838D839887DF
:101990008F839A8789871B861C861D861E86680111
:1019A000B8E6CB1ABDEFDB0A7801E6E3EE1AEDEFFD
:1019B000FE0A20E4422E55245394612C712CD6014A
:1019C000ED91FC913097A9F1848195819C838B8363
:1019D000808191819E838D8382819381DC01ED9151
:1019E000FC910480F581E02D099598878F83D601BD
:1019F000ED91FC9182819381DC01ED91FC91068057
:101A0000F781E02D09959A8789874B865C866D86DC
:101A10007E86D601ED91FC9160857185D801ED91AE
:101A2000FC910190F081E02DAE014F5F5F4FC80146
:101A30000995B2E0CB0ED11CEC14FD0409F0BFCF28
:101A400090E4492E55245394612C712CF701A08108
:101A5000B1811097E1F112968D919C9113979C831F
:101A60008B8314968D919C9115979E838D83ED9118
:101A7000FC9111970480F581E02DCD01099598879F
:101A80008F83D7018D919C91DC01ED91FC910680B3
:101A9000F781E02D09959A8789874B865C866D864C
:101AA0007E86D801ED91FC91C080D180F7018081C4
:101AB0009181DC01ED91FC910280F381E02D09958B
:101AC000AE014F5F5F4FBC01C801F6010995F2E01E
:101AD000EF0EF11CE214F30409F0B8CFF801EA5F4D
:101AE000FC4F81E08083319680829182A282B38212
:101AF000AD89BE898D929D92AD92BC9213978FEF66
:101B00009FEFA6960FB6F894DEBF0FBECDBFDF9154
:101B1000CF911F910F91FF90EF90DF90CF90BF90EA
:101B2000AF909F908F907F906F905F904F903F907D
:101B30002F900895EA30F10509F0A1C082E391E009
:101B40009A8389831B821C821D821E821F821886B3
:101B500019861A860E949401F801C084D184E28417
:101B6000F3849B01AC012C193D094E095F09690101
:101B70007A016F89788DCE0101960E94EE08C70127
:101B8000B60128EE33E040E050E00E94D012690137
:101B90007A019B01AC018B819C81AD81BE818C0D52
:101BA0009D1DAE1DBF1D8B839C83AD83BE8360E4F2
:101BB00072E48FE090E00E94AC12CF80D884E98478
:101BC000FA84DC01CB018C0D9D1DAE1DBF1D8F83E2
:101BD0009887A987BA870E949401CF80D884E98426
:101BE000FA8436E3D31A35E6E30A34ECF30A28EE36
:101BF00033E040E050E00E94D01229013A019B01FD
:101C0000AC0160E472E48FE090E00E94AC12A701A6
:101C10009601261B370B480B590BCA01B9012B81C2
:101C20003C814D815E812150310941095109690191
:101C30007A01C418D508E608F7082601370120E024
:101C40003AEC4AE95BE30E94D012420E531E641E36
:101C5000751ED8011C964D925D926D927C921F97D5
:101C6000F801608B718B828B938B0E949401AD89FC
:101C7000BE896D937D938D939C9313974ACDE630E7
:101C8000F10559F46F89788D8D8D9E8D0E9485099F
:101C900081E0EF8DF8A180833CCDEB30F10521F49C
:101CA000AB8DBC8D1C9235CDEF5FFE4FEE0FFF1F4D
:101CB000E00FF11F80819181009709F42ACDDC01AA
:101CC000ED91FC910190F081E02D6F89788D09955F
:101CD00020CD4F925F926F927F928F929F92AF92A0
:101CE000BF92CF92DF92EF92FF920F931F93CF9309
:101CF000DF93EC017B018A81FB0180838B818183EF
:101D00008C8182838D8183833496412C512C3201C6
:101D100004E010E09F012F5F3F4FCF010296DF01EB
:101D20001396A8010C5F1F4F8A809B80AC80BD80FA
:101D3000481459046A047B04C8F4AA85BB85A40F1F
:101D4000B51F14974C9111962C91119712969C9156
:101D5000129713968C9140832183928383838FEF14
:101D6000481A580A680A780A3496D4CF4C854083BA
:101D70004D85F90140832E85FC0120838F858C934E
:101D8000F701E00FF11F412C512C3201AF019F01EF
:101D90002F5F3F4FCF010296DF0113960C5F1F4F5D
:101DA0008C849D84AE84BF84481459046A047B04E7
:101DB000D8F4CF01841B950BAC89BD89A80FB91F3E
:101DC0003C9111962C91119712969C911297139613
:101DD0008C9130832183928383838FEF481A580A32
:101DE000680A780A3496D3CF4E8940834F89F90127
:101DF0004083288DFC012083898D8C93412C512CAC
:101E000032018E899F89A88DB98D481659066A06B8
:101E10007B0680F55201AA0CBB1CEC8DFD8DEA0DF2
:101E2000FB1DA081B181FD0101900020E9F73197F0
:101E30006F01CA1ADB0AA60170E060E0C701800FDB
:101E4000911F0E94DC050C5F1F4F8C8D9D8DA80E8D
:101E5000B91EF50160817181A601C701800F911F34
:101E60000E94EF130C0D1D1DFFEF4F1A5F0A6F0A42
:101E70007F0AC7CFC801DF91CF911F910F91FF90CB
:101E8000EF90DF90CF90BF90AF909F908F907F901A
:101E90006F905F904F900895EF92FF920F931F9372
:101EA000CF93DF938C017B01DC0112962C9112976A
:101EB000FB012193CF011396ED91FC91EF01099065
:101EC0000020E9F72197CE1BDF0BAE0170E060E048
:101ED0000E94DC05D80113966D917C91AE01C7017B
:101EE00005960E94EF13CE010596DF91CF911F91C9
:101EF0000F91FF90EF900895CF92DF92EF92FF92B3
:101F00000F931F93CF93DF936C01EB01DC011296CB
:101F10008C911297888313968C91139789831496CA
:101F2000ED91FC91DF010D900020E9F78D0101504A
:101F300011090E1B1F0BA80170E060E0CE01029694
:101F40000E94DC05F60164817581A801CE01069628
:101F50000E94EF13C8010696F601A681B781FD0124
:101F600001900020E9F731977F01EA1AFB0AA701E7
:101F700070E060E08C0F9D1F0E94DC05065F1F4F24
:101F8000D60116966D917C91A701CE01800F911F0D
:101F90000E94EF130E0D1F1DF601A085B185FD01F6
:101FA00001900020E9F731977F01EA1AFB0AA701A7
:101FB00070E060E0CE01800F911F0E94DC050C5F95
:101FC0001F4FD60118966D917C91A701CE01800F0D
:101FD000911F0E94EF13C701800F911FF6016285C8
:101FE000438534852585C80FD91F688349833A8383
:101FF0002B830496DF91CF911F910F91FF90EF906B
:10200000DF90CF9008951F920F920FB60F92112478
:102010002F933F934F935F936F937F938F939F93F0
:10202000AF93BF93EF93FF938CE993E00E94E0009E
:10203000FF91EF91BF91AF919F918F917F916F91A0
:102040005F914F913F912F910F900FBE0F901F9076
:1020500018951F920F920FB60F9211242F938F9302
:102060009F93EF93FF93E091AC03F091AD038081D8
:10207000E091B203F091B30382FD1BC09081809187
:10208000B5038F5F8F732091B603821741F0E09103
:10209000B503F0E0E456FC4F958F8093B503FF91B4
:1020A000EF919F918F912F910F900FBE0F901F90E6
:1020B00018958081F4CF1F920F920FB60F921124C2
:1020C0002F933F938F939F93AF93BF938091F2028F
:1020D0009091F302A091F402B091F5023091F102D7
:1020E00023E0230F2D3758F50196A11DB11D209334
:1020F000F1028093F2029093F302A093F402B09362
:10210000F5028091F6029091F702A091F802B09149
:10211000F9020196A11DB11D8093F6029093F7027A
:10212000A093F802B093F902BF91AF919F918F9164
:102130003F912F910F900FBE0F901F90189526E89A
:10214000230F0296A11DB11DD2CF10929F031092B2
:102150009E0388EE93E0A0E0B0E08093A00390930C
:10216000A103A093A203B093A3038CE691E0909304
:102170009D0380939C0385EC90E09093A90380934A
:10218000A80384EC90E09093AB038093AA0380ECC7
:1021900090E09093AD038093AC0381EC90E090933A
:1021A000AF038093AE0382EC90E09093B1038093F1
:1021B000B00386EC90E09093B3038093B203109247
:1021C000B5031092B6031092B7031092B8038FEFC5
:1021D00080938F03109291031092900310929B03AF
:1021E00010929A038FEF9FEFDC01809396039093F8
:1021F0009703A0939803B09399038AE891E0909392
:102200004704809346048CE993E0909349048093BB
:10221000480480E091EEA0E0B0E080934A049093FF
:102220004B04A0934C04B0934D0410924C078EE7DE
:1022300091E090935B0780935A0710927007109279
:10224000710710927207109273071092770710921D
:102250007607EEEDF6E01192119287E0E031F80793
:10226000D1F7E0E1F7E01192119287E0E234F8074C
:10227000D1F7EEE5F4E08EE995E011928E179F0715
:10228000E1F7EEE9F5E0119286E0EE3DF807D9F7C7
:1022900010925C0710925D0710925E0710925F0724
:1022A00010926507109264071092660710926707F4
:1022B000109268071092690710926F0710926E07CC
:1022C00010925A0410925B0410925C0410925D0408
:1022D00080EA91E090933A048093390484E991E094
:1022E0009093400480933F041092410482EE95E065
:1022F000909343048093420481E090E090934504DE
:10230000809344048EEC92E090933E0480933D04CD
:102310000895789484B5826084BD84B5816084BD5D
:1023200085B5826085BD85B5816085BD80916E0073
:10233000816080936E0010928100809181008260A4
:1023400080938100809181008160809381008091E1
:1023500080008160809380008091B10084608093D0
:10236000B1008091B00081608093B00080917A00CC
:10237000846080937A0080917A00826080937A00F2
:1023800080917A00816080937A0080917A008068E1
:1023900080937A001092C10080910F03811145C093
:1023A00010920103109200038FEF80930403809337
:1023B00005038093060380930703809308038093AB
:1023C000090381E080930A0310920C0310920B031F
:1023D00010920303109202038091FC029091FD027F
:1023E000892B31F48EEF92E09093FD028093FC02F2
:1023F000E091FA02F091FB02309721F08EEF92E02B
:10240000958384838EEF92E09093FB028093FA028F
:1024100010920E0310920D038AE591E09093FF0253
:102420008093FE0281E080930F03539A87E193E04B
:10243000909301038093000388E290E090930C0353
:1024400080930B038091920390919303A091940346
:10245000B0919503843C29E09207A105B10520F4D1
:1024600084EC99E0A0E0B0E0809392039093930312
:10247000A0939403B093950380E092ECA1E0B0E0C8
:1024800080934A0490934B04A0934C04B0934D0462
:10249000E0914804F0914904A089B18982E08C93CD
:1024A000A485B5851C92A685B78580E18C93108E96
:1024B000A489B58986E08C93A289B3898C918061C7
:1024C0008C93A289B3898C9188608C93A289B389FB
:1024D0008C9180688C930288F389E02D80818F7DB8
:1024E0008083109243071092420710924507109282
:1024F000440710924907109248071092470710921C
:102500004607E0E1F7E090E080E021913191232B54
:10251000F1F4FC01EE0FFF1FE05FF84F29E334E018
:10252000318320838C599F4F90933C0480933B04CC
:10253000C0E0D0E086E494E00E94080B2097D1F33D
:102540000E94CC008823B1F30E940000F3CF0196D3
:1025500089319105D1F6ECCFDB018F939F930E94D7
:10256000F912BF91AF91A29F800D911DA39F900D75
:10257000B29F900D1124089597FB072E16F4009436
:1025800007D077FD09D00E94041307FC05D03EF464
:10259000909581959F4F0895709561957F4F08950F
:1025A000A1E21A2EAA1BBB1BFD010DC0AA1FBB1F57
:1025B000EE1FFF1FA217B307E407F50720F0A21BC9
:1025C000B30BE40BF50B661F771F881F991F1A9436
:1025D00069F760957095809590959B01AC01BD0160
:1025E000CF0108950E941E13B7FF0895821B930B1D
:1025F00008950E941E13A59F900DB49F900DA49F57
:10260000800D911D11240895AA1BBB1B51E107C029
:10261000AA1FBB1FA617B70710F0A61BB70B881F72
:10262000991F5A95A9F780959095BC01CD01089501
:10263000EE0FFF1F0590F491E02D0994A29FB001C9
:10264000B39FC001A39F700D811D1124911DB29FE6
:10265000700D811D1124911D0895B0E0A0E0E3E309
:10266000F3E10C941F158C01009751F4CB010E94EB
:10267000F8138C01C801CDB7DEB7E0E10C943B152F
:10268000FC01E60FF71F9C0122503109E217F30706
:1026900008F49DC0D901CD91DC911197C617D707D9
:1026A00098F0C530D10530F3CE010497861797070F
:1026B00008F3C61BD70B2297C193D1936D937C93DC
:1026C000CF010E949414D6CF5B01AC1ABD0A4C0115
:1026D0008C0E9D1EA0917A07B0917B07512C412C46
:1026E000F12CE12C109731F58091780790917907C2
:1026F0008815990509F05CC04616570608F058C0C1
:102700008091000190910101009741F48DB79EB72F
:102710004091040150910501841B950BE817F907BE
:1027200008F055C0F0937907E0937807F9017183B9
:102730006083A0CF8D919C91119712966C90129707
:1027400013967C901397A815B90559F56C0142E0D2
:10275000C40ED11CCA14DB0420F1AC014A195B0978
:10276000DA011296159780F062827382518340835A
:10277000D9016D937C93E114F10471F0D7011396A4
:10278000FC93EE93129776CF22968C0F9D1FF90142
:1027900091838083F301EFCFF0937B07E0937A0777
:1027A00069CF4816590608F42C017D01D3019ACF50
:1027B000CB010E94F8137C01009749F0AE01B801EB
:1027C0000E94EF13C8010E949414870153CF10E0B8
:1027D00000E050CF81E090E0F8940C945415FB0198
:1027E000DC0102C001900D9241505040D8F708958D
:1027F0000F931F93CF93DF938230910510F482E003
:1028000090E0E0917A07F0917B0730E020E0B0E0C3
:10281000A0E0309799F42115310509F44AC0281B2E
:10282000390B24303105D8F58A819B8161157105FA
:1028300089F1FB0193838283FE0111C040815181A4
:102840000281138148175907E0F04817590799F496
:10285000109761F012960C93129713961C93329670
:10286000CF01DF91CF911F910F91089500937A07C7
:1028700010937B07F4CF2115310551F04217530710
:1028800038F0A901DB019A01BD01DF01F801C1CFD8
:10289000EF01F9CF90937B0780937A07CDCFFE01AC
:1028A000E20FF31F819391932250310939832883DA
:1028B000D7CF2091780730917907232B41F42091CD
:1028C000020130910301309379072093780720911A
:1028D0000001309101012115310541F42DB73EB7BA
:1028E0004091040150910501241B350BE0917807BC
:1028F000F0917907E217F307A0F42E1B3F0B28177E
:10290000390778F0AC014E5F5F4F2417350748F068
:102910004E0F5F1F509379074093780781939193EF
:102920009FCFF0E0E0E09CCFCF93DF930097E9F0FA
:10293000FC01329713821282A0917A07B0917B0733
:10294000ED0130E020E01097A1F420813181820F69
:10295000931F20917807309179072817390709F0DC
:1029600061C0F0937907E0937807DF91CF910895E4
:10297000EA01CE17DF07E8F54A815B819E01411528
:102980005105B1F7E901FB83EA8349915991C40FDD
:10299000D51FEC17FD0761F4808191810296840FA9
:1029A000951FE90199838883828193819B838A8320
:1029B000F0E0E0E012968D919C9113970097B9F5A5
:1029C0002D913C911197CD010296820F931F20917A
:1029D0007807309179072817390739F6309751F57C
:1029E00010927B0710927A07B0937907A09378072B
:1029F000BCCFD383C28340815181840F951FC817F8
:102A0000D90761F44E5F5F4F88819981480F591F44
:102A1000518340838A819B81938382832115310571
:102A200009F0B0CFF0937B07E0937A079ECFFD01CA
:102A3000DC01C0CF13821282D7CF2F923F924F92E8
:102A40005F926F927F928F929F92AF92BF92CF923E
:102A5000DF92EF92FF920F931F93CF93DF93CDB747
:102A6000DEB7CA1BDB0B0FB6F894DEBF0FBECDBFBF
:102A700009942A88398848885F846E847D848C8490
:102A80009B84AA84B984C884DF80EE80FD800C8199
:102A90001B81AA81B981CE0FD11D0FB6F894DEBF7C
:0C2AA0000FBECDBFED010895F894FFCFEC
:102AAC0000007C078000726F7373657269616C5FE4
:102ABC006D7367732F5265717565737450617261B4
:102ACC006D00000000007C0FF707F407F107000011
:102ADC0000003409EE08EB08E808000000004C0F79
:102AEC009B07980795070000000083098309830959
:102AFC005F095B095809000000008E044A04480471
:102B0C005F095B095F00F501000000000201620033
:102B1C008F004F01C0009E00B20000000000690E43
:102B2C00850992078F0700000000D104080BDD0116
:102B3C000000000088078107E501E20100000000A9
:102B4C00EC01E801E501E201323766666130633978
:102B5C0063346238666238343932323532626361DA
:102B6C006439653563353762007374645F6D736700
:102B7C00732F496E7438004D6573736167652066F9
:102B8C00726F6D206465766963652064726F707016
:102B9C0065643A206D657373616765206C6172675B
:102BAC006572207468616E206275666665722E00AF
:102BBC0039663065393862646136353938313938BF
:102BCC003664646635336166613761343065343937
:102BDC00003131616264373331633235393333322A
:102BEC0036316364363138336264313264363239AB
:102BFC003500726F7373657269616C5F6D736773A7
:102C0C002F4C6F6700306164353166383866633439
:102C1C0034383932663863313036383430373736F9
:102C2C00343630303500726F7373657269616C5F66
:102C3C006D7367732F546F706963496E666F0063B1
:102C4C00643731363663373463353532633331317B
:102C5C0066626363326665356137626332383900A8
:102C6C007374645F6D7367732F54696D65006C6565
:102C7C00645F636F6E74726F6C5F746F7069630006
:00000001FF
