:100000000C9435000C945D000C945D000C945D0024
:100010000C945D000C945D000C945D000C945D00EC
:100020000C945D000C945D000C945D000C945D00DC
:100030000C945D000C945D000C945D000C945D00CC
:100040000C94EF030C945D000C945D000C945D0027
:100050000C945D000C945D000C945D000C945D00AC
:100060000C945D000C945D00750611241FBECFEF4B
:10007000D8E0DEBFCDBF11E0A0E0B1E0EAE1FEE0F4
:1000800002C005900D92A232B107D9F721E0A2E299
:10009000B1E001C01D92A53EB207E1F710E0C5E353
:1000A000D0E004C02197FE010E94F106C433D107BD
:1000B000C9F70E9439040C940B070C94000080E9E6
:1000C00091E008953FB7F8948091290190912A0119
:1000D000A0912B01B0912C0126B5A89B05C02F3F04
:1000E00019F00196A11DB11D3FBFBA2FA92F982F5E
:1000F0008827BC01CD01620F711D811D911D42E059
:10010000660F771F881F991F4A95D1F708952FB75B
:10011000F8946091250170912601809127019091BA
:1001200028012FBF08950F931F93CF93DF93209142
:1001300023012F5F322F37703093230120FF2BC014
:1001400020E831FD2064347009F02062205FFC015A
:10015000EC01239600E011E06485662329F070E04D
:10016000C8010E9495066F5F6187322F369F030E8C
:1001700030E0311D1124311110C01682662311F0B8
:10018000615061873196EC17FD0731F7DF91CF9110
:100190001F910F91089520E0D4CF31503683EECFD8
:1001A0004F925F926F927F928F92AF92BF92CF9257
:1001B000DF92EF920F931F93CF93DF933C01EB01FC
:1001C0000E946200F30127853089621B730B6A303D
:1001D0007105B0F3F894E881F9817BB178606BB177
:1001E000677F6BB9CA848F812C2D281B822F2F83A8
:1001F000BF844A805B801D850C85DE841F5F0F5F96
:10020000D3949E813885A984EB844181D20120E07A
:10021000C32F522F322F3181442788943111380F48
:1002200008F43FEF8195889410FD430F479588941B
:1002300011FD430F4795889412FD430F479588940D
:1002400013FD430F4795889414FD430F47958894F9
:1002500015FD430F4795889416FD430F47958894E5
:1002600017FD430F47958894232F1111242F8C0DD0
:10027000422F002C7BB900C047FF6BB93081222789
:10028000889400C000C0002C6BB93111390F00C038
:10029000002C7BB900C046FF6BB908F43FEF919585
:1002A000889400C000C0002C6BB900FD230F00C073
:1002B000002C7BB900C045FF6BB92795889401FDE0
:1002C000230F00C000C0002C6BB92795889400C094
:1002D000002C7BB900C044FF6BB902FD230F2795AA
:1002E000889400C000C0002C6BB903FD230F00C030
:1002F000002C7BB900C043FF6BB92795889404FD9F
:10030000230F00C000C0002C6BB92795889400C053
:10031000002C7BB900C042FF6BB905FD230F279568
:10032000889400C000C0002C6BB906FD230F00C0EC
:10033000002C7BB900C041FF6BB92795889407FD5D
:10034000230F00C000C0002C6BB92795889400C013
:10035000002C7BB900C040FF6BB9432F0111422F25
:100360009A0D00C000C0002C6BB900C000C0002C6A
:100370007BB900C047FF6BB932812227889400C047
:1003800000C0002C6BB931113C0F00C0002C7BB9B0
:1003900000C046FF6BB908F43FEFEB0DF11D00C044
:1003A00000C0002C6BB9D0FC230F00C0002C7BB91F
:1003B00000C045FF6BB927958894D1FC230F00C07E
:1003C00000C0002C6BB92795889400C0002C7BB925
:1003D00000C044FF6BB9D2FC230F2795889400C05E
:1003E00000C0002C6BB9D3FC230F00C0002C7BB9DC
:1003F00000C043FF6BB927958894D4FC230F00C03D
:1004000000C0002C6BB92795889400C0002C7BB9E4
:1004100000C042FF6BB9D5FC230F2795889400C01C
:1004200000C0002C6BB9D6FC230F00C0002C7BB998
:1004300000C041FF6BB927958894D7FC230F00C0FB
:1004400000C0002C6BB92795889400C0002C7BB9A4
:1004500000C040FF6BB9432FD110422FC19500C09F
:1004600000C0002C6BB9CE0D00C000C07BB900C02D
:1004700047FF6BB931812227889400C000C0002C4F
:100480006BB93111380F00C0002C7BB900C046FF9A
:100490006BB908F43FEF8195889400C000C0002C30
:1004A0006BB910FD230F00C0002C7BB900C045FFC5
:1004B0006BB92795889411FD230F00C000C0002C54
:1004C0006BB92795889400C0002C7BB900C044FF0D
:1004D0006BB912FD230F2795889400C000C0002C33
:1004E0006BB913FD230F00C0002C7BB900C043FF84
:1004F0006BB92795889414FD230F00C000C0002C11
:100500006BB92795889400C0002C7BB900C042FFCE
:100510006BB915FD230F2795889400C000C0002CEF
:100520006BB916FD230F00C0002C7BB900C041FF42
:100530006BB92795889417FD230F00C000C0002CCD
:100540006BB92795889400C0002C7BB900C040FF90
:100550006BB9432F1111422F8C0D00C000C0002C2D
:100560006BB9119709F086CE20EE31E0D2010E94DE
:10057000CB06DC01CB01F4E0B695A795979587955E
:10058000FA95D1F730E020E0B901EAE94E9E040C7B
:10059000611D5E9E600D711D1124650D711D860F1C
:1005A000971FA11DB11D893E43E09407A105B10528
:1005B00008F434C0885E9340A109B10942E0B695C1
:1005C000A795979587954A95D1F747E0849F080EA0
:1005D000211D949F200D311D1124290F311D609183
:1005E000220170E0860F971F820F931F4091250113
:1005F000509126016091270170912801292F3327FE
:10060000420F531F611D711D409325015093260118
:1006100060932701709328018093220178940E94AF
:100620006200F301708B6787DF91CF911F910F916B
:10063000EF90DF90CF90BF90AF908F907F906F90B2
:100640005F904F900895539A08950F931F93CF93FF
:10065000DF93CDB7DEB762970FB6F894DEBF0FBE5B
:10066000CDBF8C01F901DC011C968C917A836983E2
:100670005C834B835E834D8390819D8791819E87B0
:1006800092819F878130F1F4CE0101960E94930000
:1006900083E0888B1A8A198AD801ED91FC91048431
:1006A000F585E02DBE016F5F7F4FC8010995629609
:1006B0000FB6F894DEBF0FBECDBFDF91CF911F9173
:1006C0000F9108951C861B861A86198618861F822C
:1006D000DFCF0F931F93CF93DF93CDB7DEB7629732
:1006E0000FB6F894DEBF0FBECDBF8C01F901DC015F
:1006F0001C968C917A8369835C834B835E834D83E4
:1007000090819D8791819E8792819F878130E9F4B6
:10071000CE0101960E949300188A1A8A198AD8017C
:10072000ED91FC910484F585E02DBE016F5F7F4F54
:10073000C801099562960FB6F894DEBF0FBECDBF13
:10074000DF91CF911F910F9108951C861B861A8609
:10075000198618861F82E0CF880F991F880F991F6E
:10076000FC01EE0FFF1FE80FF91FE85BFE4F90E062
:1007700080E06083518342830196339684309105F3
:10078000C1F7089590E080E00895FC018585968585
:100790000895CF93DF9300D000D000D0CDB7DEB75F
:1007A000AB011C821D821E82DC01ED91FC91019047
:1007B000F081E02D19821A821B829E012F5F3F4F2C
:1007C000BE016C5F7F4F099526960FB6F894DEBF89
:1007D0000FBECDBFDF91CF9108950E9406071F92F3
:1007E0000F920FB60F9211242F933F938F939F93E5
:1007F000AF93BF938091250190912601A09127018D
:10080000B09128013091240123E0230F2D3758F5B2
:100810000196A11DB11D2093240180932501909381
:100820002601A0932701B09328018091290190917E
:100830002A01A0912B01B0912C010196A11DB11D9F
:100840008093290190932A01A0932B01B0932C014E
:10085000BF91AF919F918F913F912F910F900FBEBC
:100860000F901F90189526E8230F0296A11DB11D29
:10087000D2CFCF93DF9300D000D01F92CDB7DEB799
:10088000789484B5826084BD84B5816084BD85B56B
:10089000826085BD85B5816085BD80916E00816077
:1008A00080936E001092810080918100826080931D
:1008B000810080918100816080938100809180001F
:1008C0008160809380008091B10084608093B1004A
:1008D0008091B00081608093B00080917A00846044
:1008E00080937A0080917A00826080937A00809170
:1008F0007A00816080937A0080917A00806880938A
:100900007A001092C10080914001811145C010927F
:100910003201109231018FEF8093350180933601BF
:1009200080933701809338018093390180933A0195
:1009300081E080933B0110923D0110923C011092A6
:100940003401109233018091C6019091C701892B27
:1009500031F48FE291E09093C7018093C601E0915A
:100960002D01F0912E01309721F08FE291E09583D7
:1009700084838FE291E090932E0180932D01109259
:100980003F0110923E0184E191E090933001809309
:100990002F0181E080934001539A88E491E0909385
:1009A00032018093310188E290E090933D01809381
:1009B0003C018091CF019091D001A091D101B091E3
:1009C000D201843C29E09207A105B10520F484EC12
:1009D00099E0A0E0B0E08093CF019093D001A09384
:1009E000D101B093D20140E05FEF60E070E090E0B1
:1009F00080E00E94AC0340E050E06FEF70E081E0E7
:100A000090E00E94AC0340E05FEF60E070E082E0C5
:100A100090E00E94AC034FEF50E060E070E083E0B4
:100A200090E00E94AC0340E05FEF60E070E084E0A3
:100A300090E00E94AC0340E050E06FEF70E085E092
:100A400090E00E94AC0340E05FEF60E070E086E081
:100A500090E00E94AC034FEF50E060E070E087E070
:100A600090E00E94AC0340E050E06FEF70E088E05F
:100A700090E00E94AC0340E05FEF60E070E089E04E
:100A800090E00E94AC0388EE882E83E0982EA12C83
:100A9000B12C332433948091DD01811112C00E9466
:100AA0008700A50194010E94A9063093DA012093E2
:100AB000D90181E090E09093DC018093DB013092DA
:100AC000DD010E948700A50194010E94A906809182
:100AD000D9019091DA01281B390B8091DB019091AB
:100AE000DC012817390708F4F8C00E948700A50127
:100AF00094010E94A9063093DA012093D901F09065
:100B0000CC018091CF019091D001A091D101B09101
:100B1000D201892B8A2B8B2BD9F00E946200009185
:100B2000C8011091C9012091CA013091CB01601B0D
:100B3000710B820B930B0091CF011091D00120918A
:100B4000D1013091D2016017710782079307C8F273
:100B50000E9462006093C8017093C9018093CA012A
:100B60009093CB01E091D701F091D801309759F0E3
:100B70004091D3015091D4016091D5017091D6017B
:100B80008F2D0995F82E0091C6011091C7014F2CA9
:100B9000512C712C612C0115110509F460C0D8018C
:100BA0001C96EC901C978091CD019091CE018436DB
:100BB000910510F41C961C92D801ED91FC91828154
:100BC00093819D838C8319821A821B82FF2099F165
:100BD000680196E0C90ED11CF0E0E0E0D6012D914D
:100BE0006D01222321F112962C90222001F130E098
:100BF00050E040E02F5F3F4F4F4F5F4FC301B201C6
:100C00000E9485069B01AC01822D90E0B0E0A0E03F
:100C1000BC01CD016F5F7F4F8F4F9F4F0E948506B4
:100C2000A1E0B0E0AC0FBD1FAE0FBF1F8C9331969B
:100C3000E330F10599F6F8014585568562817381A7
:100C40009E012F5F3F4FC801EC81FD810995D801BE
:100C50001C96EC921C9714960D911C919CCF809140
:100C6000C4019091C5018C010F5F1F4F1093C50106
:100C70000093C40149978CF10E9487009B01AC014D
:100C8000E8EEF3E00E9FB0010F9F700D1E9F700DF8
:100C90001124072E000C880B990BC090C001D09036
:100CA000C101E090C201F090C3012C193D094E0929
:100CB0005F090E94A9063093CE012093CD011092C6
:100CC000C5011092C4010E9487006093C001709317
:100CD000C1018093C2019093C30180E090E0892B11
:100CE00009F4D9CE0E940000D6CEECECF1E08FEFF3
:100CF000808312821182148613868FEF9FEFDC01AE
:100D000087839087A187B2870895DB018F939F9394
:100D10000E94D206BF91AF91A29F800D911DA39F0B
:100D2000900DB29F900D1124089597FB072E16F495
:100D3000009407D077FD09D00E94DD0607FC05D09E
:100D40003EF4909581959F4F0895709561957F4FE2
:100D50000895A1E21A2EAA1BBB1BFD010DC0AA1FFC
:100D6000BB1FEE1FFF1FA217B307E407F50720F014
:100D7000A21BB30BE40BF50B661F771F881F991F8F
:100D80001A9469F760957095809590959B01AC01D8
:100D9000BD01CF0108950E94F706B7FF0895821B99
:100DA000930B08950E94F706A59F900DB49F900D98
:100DB000A49F800D911D11240895AA1BBB1B51E116
:100DC00007C0AA1FBB1FA617B70710F0A61BB70BBB
:100DD000881F991F5A95A9F780959095BC01CD0160
:100DE0000895EE0FFF1F0590F491E02D0994A29F46
:100DF000B001B39FC001A39F700D811D1124911DEF
:100E0000B29F700D811D1124911D089581E090E025
:0A0E1000F8940C940B07F894FFCF40
:100E1A0000000000ED03ED03ED03C903C503C2039F
:100E2A0000000000690325032303C903C5035F000B
:020E3A00D000E6
:00000001FF
